:100000000A128A11E62FFF1B0D2883137F1883170E
:100010000008840A0319FF0A080000308A00040857
:10002000840A820700348034C0349434D434413498
:10003000553454344F344D344134543449344334BA
:100040002034473441345234443445344E3400343F
:1000500043346834653463346B342034733475341A
:100060006D3420346534723472346F347234003439
:1000700044344F34203441344D342034203420343F
:1000800020343A34203400344E3448344934453432
:100090005434203444344F3420343A34203400343F
:1000A000543448344F34493420345434493445347A
:1000B00054343A3400342034203420342034003492
:1000C0004E3441344E34473400344D345534413489
:0200D0000034FA
:1004680064008001840A0406031900340406352A4E
:1004780000300A128A116C220A128A1101300A12FB
:100488008A116C220A128A110800303430342E3452
:1004980030342034203425340034303430342E3491
:1004A800303420342034433400347E088A007F08F6
:1004B80082000A128A1159220A128A118000840ABB
:1004C80004087D0603190034FF0A0319FE0A5D2A91
:1004D800F30083120313871273080A128A11F42295
:1004E8000A128A118312031387171A30F200F830A0
:1004F800F100F10B7D2AF20B7D2A00008312031311
:1005080087130800831603138512831203138512B9
:100518007530F100E130F000F00B902AF10B902AD1
:100528008312031385163130F000F00B992A9C2AA8
:1005380083160313851608008312031307158715FE
:100548000D30F100FB30F000F00BA82AF10BA82ABF
:10055800AD2A83120313071187117530F100E130BA
:10056800F000F00BB52AF10BB52A0800831203132B
:10057800071587150A30F100BC30F000F00BC22ACD
:10058800F10BC22A00008312031307118711793077
:10059800F1001F30F000F00BCF2AF10BCF2AD42A3C
:1005A800080083120313B1014230F000F00BDA2A7D
:1005B800000083120313851AE22AE32AF32A8530FE
:1005C800F000F00BE52A83120313851EEC2AED2AAE
:1005D800EF2AB101B10A5330F000F00BF12A0800FC
:1005E800F000701CF82AF92AFD2A83120313081652
:1005F800002B831203130812F01C032B042B062B69
:100608008816072B8812701D0A2B0B2B0D2B081729
:100618000E2B0813F01D112B122B142B8817152BDA
:1006280088130800F401F501701C1B2B1C2B222BCE
:100638007208F4070318F50A7308F5070130031068
:10064800F20DF30DFF3E031D232B01300310F10CB7
:10065800F00CFF3E031D2A2B70087104031D352B77
:10066800362B182B7508F1007408F0000800F70005
:1006780077080319402B412B6C2B053077020318A0
:10068800462B472B6C2B740803194B2B4C2B6C2BCC
:100698007708003E84000A128A110D200A128A1176
:1006A8007407FF3EF6007608F50004300310F50CD9
:1006B800FF3E031D5A2B75080A128A116C220A1272
:1006C8008A1176080F390A128A116C220A128A11C5
:1006D8000800F20183120313851E732B742B6E2BF3
:1006E8003130F000F00B762B792B83120313851A27
:1006F8007E2B7F2B902B0130F0007208073C013EC7
:10070800872B0310F00DFF3E031D852B7008FF3A61
:10071800FF007F08F105A32B0130F0007208073CA9
:10072800013E982B0310F00DFF3E031D962B700819
:10073800FF007F08F104851AA22BA32B9F2B013001
:10074800FF007F08F20708307202031CAC2BAD2BA8
:100758006E2B7108080083120313C201C301D82B42
:1007680042087907FC007A08FB000318FB0AC21F3D
:10077800BE2BFB037B08FD007D0883120313FF00DB
:100788007C0884000A128A1103200A128A110A12AC
:100798008A11A3240A128A11013083120313C20793
:1007A8000318C30A0030C30742087907FC007A0817
:1007B800FB000318FB0AC21FE22BFB037B08FD00AA
:1007C8007D0883120313FF007C0884000A128A1133
:1007D80003200A128A11003A031DF32BF42BB42BC1
:1007E800080000300A128A11F4220A128A11033012
:1007F8000A128A116C220A128A112130F500763009
:10080800F400F40B052CF50B052C000003300A123C
:100818008A116C220A128A114830F5006C30F400F3
:10082800F40B142CF50B142C000003300A128A1157
:100838006C220A128A1102300A128A116C220A12D8
:100848008A1102300A128A116C220A128A1108309F
:100858000A128A116C220A128A1100300A128A11AD
:100868006C220A128A110C300A128A116C220A129E
:100878008A1100300A128A116C220A128A11063073
:100888000A128A116C220A128A110800FD01FB1F44
:100898004E2C4F2C562CFA09FB09FA0A0319FB0AAD
:1008A800FD01FD0AF91F592C5A2C5F2CF809F9098A
:1008B800F80A0319F90A780879040319642C652CD5
:1008C800942CFC01FC0A732C01300310F80DF90D6F
:1008D800FF3E031D692C0130FF007F08FC07F91F4C
:1008E800762C772C682C79087B02031D7D2C7808E0
:1008F8007A02031C802C812C872C7808FA0279084C
:10090800031CFB03FB0201300310F90CF80CFF3E3B
:10091800031D882C0130FC02031D932C942C772C8A
:100928007D080319982C992C9E2CFA09FB09FA0AC0
:100938000319FB0A7B08F9007A08F8000800F4009C
:1009480074080F39F2007408F039F30083120313A6
:1009580087167308F10004300310F10CFF3E031DE5
:10096800B02C71080A128A11F4220A128A11831211
:10097800031387173330F5008230F6000000FF308C
:10098800F5070318F60AFF30F6077608803AFF00E5
:1009980080307F02031DD22C01307502031CD52C38
:1009A800D62CC22C83120313871372080A128A11D9
:1009B800F4220A128A118312031387173330F700BF
:1009C8008230F8000000FF30F7070318F80AFF30FC
:1009D800F8077808803AFF0080307F02031DF62C64
:1009E80001307702031CF92CFA2CE62C831203132E
:1009F80087130800F501F11F022D032D0A2DF009B8
:100A0800F109F00A0319F10AF501F50AF31F0D2D92
:100A18000E2D172DF209F309F20A0319F30A013012
:100A2800FF007F08F506F601F70170087104031945
:100A38001E2D1F2D562DF401F40A2D2D0130031003
:100A4800F00DF10DFF3E031D232D0130FF007F083F
:100A5800F407F11F302D312D222D01300310F60D32
:100A6800F70DFF3E031D322D71087302031D3E2D45
:100A780070087202031C412D422D492D7008F202A4
:100A88007108031CF303F302761401300310F10C10
:100A9800F00CFF3E031D4A2D0130F402031D552DB5
:100AA800562D312D750803195A2D5B2D602DF60929
:100AB800F709F60A0319F70A7708F1007608F00033
:100AC800080083160317890188018312031307118D
:100AD8008711831603138714071187118712871349
:100AE80088010A128A11F5230A128A110A128A1138
:100AF8003C220A128A110A128A1186220A128A11C3
:100B08000A128A11D5220A128A1183120313310399
:100B1800031D8F2D902D7F2D0A128A116D230A1225
:100B28008A1183120313AE000A128A116D230A1266
:100B38008A1183120313AD000A128A116D230A1257
:100B48008A1183120313B0000A128A116D230A1244
:100B58008A1183120313AF000A128A116D230A1235
:100B68008A1183120313AA002E082D07C400C50199
:100B7800C50D30084407C60000300318013045078A
:100B8800C7002F084607C800003003180130470780
:100B9800C900FF304805CA0000304905CB002A08C3
:100BA800CC00CD014B084D06031DDC2D4A084C0630
:100BB800031DDF2DE02DD12F3008AC002E08AB002F
:100BC800F401F40A03300A128A113B230A128A112B
:100BD8003230F9008030FA000A128A11AF230A1263
:100BE8008A11F401F40A04300A128A113B230A120A
:100BF8008A112630F9008030FA000A128A11AF23D0
:100C08000A128A11831203132C08C400C501440870
:100C1800F0004508F1006430F2000030F3000A12D9
:100C28008A1116230A128A11710883120313A1006C
:100C38007008A0000A30F8000030F900E830F00031
:100C48000330F1002108F3002008F2000A128A118B
:100C5800FE240A128A117108FB007008FA000A12B1
:100C68008A114A240A128A11790883120313CF00C1
:100C78007808CE000A30F8000030F9006430F0003F
:100C88000030F1002108F3002008F2000A128A114E
:100C9800FE240A128A117108FB007008FA000A1271
:100CA8008A114A240A128A11790883120313A700A9
:100CB8007808A6000A30F8000030F9000A30F00081
:100CC8000030F1002108F3002008F2000A128A110E
:100CD800FE240A128A117108FB007008FA000A1231
:100CE8008A114A240A128A11790883120313A5006B
:100CF8007808A4000A30F8000030F9002108FB0049
:100D08002008FA000A128A114A240A128A1179085C
:100D180083120313A3007808A2004E08303EBA00DD
:100D28002608303EBB002408303EBD002208303E75
:100D3800BE000B30F40003300A128A113B230A125A
:100D48008A113A30F9000030FA000A128A11AF23EA
:100D58000A128A11831203132B08C400C501440820
:100D6800F0004508F1006430F2000030F3000A1288
:100D78008A1116230A128A11710883120313A1001B
:100D88007008A0000A30F8000030F900E830F000E0
:100D98000330F1002108F3002008F2000A128A113A
:100DA800FE240A128A117108FB007008FA000A1260
:100DB8008A114A240A128A11790883120313CF0070
:100DC8007808CE000A30F8000030F9006430F000EE
:100DD8000030F1002108F3002008F2000A128A11FD
:100DE800FE240A128A117108FB007008FA000A1220
:100DF8008A114A240A128A11790883120313A70058
:100E08007808A6000A30F8000030F9000A30F0002F
:100E18000030F1002108F3002008F2000A128A11BC
:100E2800FE240A128A117108FB007008FA000A12DF
:100E38008A114A240A128A11790883120313A50019
:100E48007808A4000A30F8000030F9002108FB00F7
:100E58002008FA000A128A114A240A128A1179080B
:100E680083120313A3007808A2004E08303EB20094
:100E78002608303EB3002408303EB5002208303E34
:100E8800B6000B30F40004300A128A113B230A1210
:100E98008A113230F9000030FA000A128A11AF23A1
:100EA8000A128A110330F40001300A128A113B2316
:100EB8000A128A110530F9008030FA000A128A11E4
:100EC800AF230A128A11F401F40A02300A128A11B5
:100ED8003B230A128A113E30F9008030FA000A12C8
:100EE8008A11AF230A128A110B30F40002300A1259
:100EF8008A113B230A128A114930F9008030FA001E
:100F08000A128A11AF230A128A110B30F400023038
:100F18000A128A113B230A128A1183120313871CAF
:100F2800962F972FB42F033083120313C6008A30ED
:100F3800C5005530C400C40B9F2FC50B9F2FC60B8F
:100F48009F2F4E30F9008030FA000A128A11AF2321
:100F58000A128A110A128A11BA220A128A117F2DDC
:100F6800033083120313C6008A30C5005530C4000D
:100F7800C40BBC2FC50BBC2FC60BBC2F5330F900BC
:100F88008030FA000A128A11AF230A128A110A1253
:100F98008A11A0220A128A117F2DF401F40A013065
:100FA8000A128A113B230A128A111630F90080307E
:100FB800FA000A128A11AF230A128A117F2D0A1227
:100FC8008A11002883134230FD000230FE004930A8
:100FD800FF00323084000A128A115D220A128A1137
:100FE8002030840032300A128A1134220A128A11FF
:080FF80083010A128A11652D24
:04400E00E22FFF3F5F
:00000001FF
